:100000000C9462000C948A000C948A000C948A0070
:100010000C948A000C948A000C948A000C948A0038
:100020000C948A000C948A000C948A000C948A0028
:100030000C948A000C948A000C948A000C948A0018
:100040000C9447030C948A000C940D010C945B01F2
:100050000C948A000C948A000C948A000C948A00F8
:100060000C948A000C948A000000000024002700F1
:100070002A0000000000250028002B0000000000DE
:1000800023002600290004040404040404040202DA
:100090000202020203030303030301020408102007
:1000A0004080010204081020010204081020000012
:1000B0000007000201000003040600000000000029
:1000C0000000C70211241FBECFEFD8E0DEBFCDBFB6
:1000D00011E0A0E0B1E0E8EEF7E002C005900D927B
:1000E000A031B107D9F711E0A0E1B1E001C01D9244
:1000F000AF3CB107E1F710E0C4ECD0E004C02297B8
:10010000FE010E94EE03C23CD107C9F70E94FD0028
:100110000C94F2030C9400000F931F9384EA91E077
:100120000E941D020397A4F084EA91E00E944E020F
:100130008C0184EA91E00E944E02000F111F005FC3
:100140001E4FF8019183808384EA91E00E944E0261
:100150001F910F9108951F9313E0812F61E00E947A
:10016000BE001F5F1930C9F784EA91E040E855E20C
:1001700060E070E00E9496011F910895CF93DF9395
:10018000482F50E0CA0186569F4FFC0134914A57D0
:100190005F4FFA018491882369F190E0880F991FDD
:1001A000FC01E859FF4FA591B491FC01EE58FF4FB7
:1001B000C591D491662351F42FB7F8948C91932F65
:1001C000909589238C93888189230BC0623061F4D8
:1001D0002FB7F8948C91932F909589238C938881D5
:1001E000832B88832FBF06C09FB7F8948C91832BF5
:1001F0008C939FBFDF91CF910895CF93DF930E949F
:100200008F030E94AB00C8E4D1E00E948C002097CD
:10021000E1F30E944801F9CF08951F920F920FB6A3
:100220000F9211242F933F934F938F939F93EF93AC
:10023000FF938091C00082FD1DC04091C6002091B7
:100240005C0130915D012F5F3F4F2F7330708091C3
:100250005E0190915F012817390771F0E0915C0110
:10026000F0915D01E45EFE4F408330935D01209389
:100270005C0102C08091C600FF91EF919F918F9128
:100280004F913F912F910F900FBE0F901F90189597
:10029000E091B001F091B101E05CFF4F819191914B
:1002A00020813181821B930B8F739070892B11F009
:1002B0000E940C0108951F920F920FB60F92112405
:1002C0002F933F938F939F93EF93FF932091A001E0
:1002D0003091A1018091A2019091A30128173907C3
:1002E00031F48091C1008F7D8093C10014C0E091F2
:1002F000A201F091A301E05AFE4F20818091A2015A
:100300009091A30101968F7390709093A3018093B5
:10031000A2012093C600FF91EF919F918F913F9191
:100320002F910F900FBE0F901F901895AF92BF9214
:10033000DF92EF92FF920F931F93CF93DF93EC0125
:100340007A018B01DD24403081EE580780E0680798
:1003500080E0780711F0DD24D39491E0A92EB12C30
:10036000EC89FD89DD2069F0C50108A002C0880F75
:10037000991F0A94E2F7808360E079E08DE390E0D2
:1003800005C0108260E874E88EE190E0A801970152
:100390000E94CA0321503040404050405695479536
:1003A0003795279580E12030380720F0DD2011F0C7
:1003B000DD24D6CFE889F9893083EA89FB89208357
:1003C00019A2EE89FF89408121E030E0C9010C8C3F
:1003D00002C0880F991F0A94E2F7482B4083EE89E8
:1003E000FF894081C9010D8C02C0880F991F0A94B2
:1003F000E2F7482B4083EE89FF894081C9010E8CCA
:1004000002C0880F991F0A94E2F7482B4083EE89B7
:10041000FF8980810F8C02C0220F331F0A94E2F7FC
:10042000209528232083DF91CF911F910F91FF907A
:10043000EF90DF90BF90AF900895DC011C96ED9196
:10044000FC911D97E05CFF4F21913191808191815A
:10045000281B390B2F733070C9010895DC011C96DD
:10046000ED91FC911D97E05CFF4F20813181E054BC
:10047000F040DF01AE5BBF4F8D919C911197281723
:10048000390719F42FEF3FEF07C08D919C91E80FCA
:10049000F91F8081282F30E0C9010895DC011C96E6
:1004A000ED91FC911D97E05CFF4F20813181E0547C
:1004B000F040DF01AE5BBF4F8D919C9111972817E3
:1004C000390719F42FEF3FEF10C08D919C911197D0
:1004D000E80FF91F20818D919C91119701968F73E0
:1004E000907011969C938E9330E0C9010895DC01C1
:1004F00091968C919197882339F05496ED91FC91C7
:100500005597808186FFF9CF91961C920895CF93DD
:10051000DF93EC01EE85FF85E05CFF4F20813181A8
:10052000E054F0402F5F3F4F2F733070DF01AE5B20
:10053000BF4F8D919C91119728173907D1F3E05C3B
:10054000FF4F80819181E054F040E80FF91F6083F4
:10055000EE85FF85E05CFF4F31832083EE89FF89C4
:10056000208181E090E00F8C02C0880F991F0A94CF
:10057000E2F7282B208381E089A3EC89FD89808123
:100580008064808381E090E0DF91CF9108951092A4
:10059000A7011092A60188EE93E0A0E0B0E080935E
:1005A000A8019093A901A093AA01B093AB0184E0A4
:1005B00091E09093A5018093A4018CE191E0909348
:1005C000B1018093B00180E691E09093B3018093F4
:1005D000B20185EC90E09093B5018093B40184EC76
:1005E00090E09093B7018093B60180EC90E09093F7
:1005F000B9018093B80181EC90E09093BB018093A6
:10060000BA0182EC90E09093BD018093BC0186EC2E
:1006100090E09093BF018093BE0184E08093C0017D
:1006200083E08093C10187E08093C20185E08093DD
:10063000C30181E08093C4010895CF92DF92EF92CD
:10064000FF920F931F93CF93DF937C016B018A017D
:10065000C0E0D0E00FC0D6016D916D01D701ED91E2
:10066000FC910190F081E02DC7010995C80FD91FB9
:10067000015010400115110571F7CE01DF91CF91A6
:100680001F910F91FF90EF90DF90CF9008951F92F0
:100690000F920FB60F9211242F933F938F939F9336
:1006A000AF93BF938091CA019091CB01A091CC01EF
:1006B000B091CD013091CE010196A11DB11D232F26
:1006C0002D5F2D3720F02D570196A11DB11D2093D0
:1006D000CE018093CA019093CB01A093CC01B0933B
:1006E000CD018091C6019091C701A091C801B09140
:1006F000C9010196A11DB11D8093C6019093C70148
:10070000A093C801B093C901BF91AF919F918F9100
:100710003F912F910F900FBE0F901F9018957894D6
:1007200084B5826084BD84B5816084BD85B58260F6
:1007300085BD85B5816085BDEEE6F0E08081816094
:100740008083E1E8F0E01082808182608083808194
:1007500081608083E0E8F0E0808181608083E1EB6C
:10076000F0E0808184608083E0EBF0E08081816054
:100770008083EAE7F0E0808184608083808182600A
:1007800080838081816080838081806880831092F3
:10079000C1000895A1E21A2EAA1BBB1BFD010DC0CA
:1007A000AA1FBB1FEE1FFF1FA217B307E407F50721
:1007B00020F0A21BB30BE40BF50B661F771F881FFD
:1007C000991F1A9469F760957095809590959B0193
:1007D000AC01BD01CF010895EE0FFF1F0590F4910C
:0807E000E02D0994F894FFCF0D
:1007E8000000000087021D031D024E022E02770240
:00000001FF
