:100000000C9462000C948A000C948A000C948A0070
:100010000C948A000C948A000C948A000C948A0038
:100020000C948A000C948A000C948A000C948A0028
:100030000C948A000C948A000C948A000C948A0018
:100040000C949C030C948A000C9413010C94610191
:100050000C948A000C948A000C948A000C948A00F8
:100060000C948A000C948A000000000024002700F1
:100070002A0000000000250028002B0000000000DE
:1000800023002600290004040404040404040202DA
:100090000202020203030303030301020408102007
:1000A0004080010204081020010204081020000012
:1000B0000007000201000003040600000000000029
:1000C0000000CD0211241FBECFEFD8E0DEBFCDBFB0
:1000D00011E0A0E0B1E0E2E9F8E002C005900D9285
:1000E000A232B107D9F711E0A2E2B1E001C01D923E
:1000F000A13EB107E1F710E0C4ECD0E004C02297C4
:10010000FE010E944304C23CD107C9F70E940301CB
:100110000C9447040C9400000F931F9386EB91E01E
:100120000E9423020397D4F086EB91E00E945402D0
:100130008C0186EB91E00E945402000F111F0E5DAE
:100140001E4FF8019183808386EB91E00E94540258
:1001500086EB91E060E071E00E9489031F910F91AE
:1001600008951F9313E0812F61E00E94C4001F5F78
:100170001930C9F786EB91E040E855E260E070E0A5
:100180000E949C011F910895CF93DF93482F50E068
:10019000CA0186569F4FFC0134914A575F4FFA01BE
:1001A0008491882369F190E0880F991FFC01E85938
:1001B000FF4FA591B491FC01EE58FF4FC591D4912A
:1001C000662351F42FB7F8948C91932F909589233F
:1001D0008C93888189230BC0623061F42FB7F89427
:1001E0008C91932F909589238C938881832B88837E
:1001F0002FBF06C09FB7F8948C91832B8C939FBF21
:10020000DF91CF910895CF93DF930E94E4030E9482
:10021000B100CEE4D1E00E948C002097E1F30E946F
:100220004E01F9CF08951F920F920FB60F9211242D
:100230002F933F934F938F939F93EF93FF938091CF
:10024000C00082FD1DC04091C60020916E0130911A
:100250006F012F5F3F4F2F7330708091700190912D
:1002600071012817390771F0E0916E01F0916F016B
:10027000E25DFE4F408330936F0120936E0102C018
:100280008091C600FF91EF919F918F914F913F9187
:100290002F910F900FBE0F901F901895E091C20103
:1002A000F091C301E05CFF4F8191919120813181F8
:1002B000821B930B8F739070892B11F00E94120197
:1002C00008951F920F920FB60F9211242F933F9310
:1002D0008F939F93EF93FF932091B2013091B301DD
:1002E0008091B4019091B5012817390731F48091BC
:1002F000C1008F7D8093C10014C0E091B401F091E2
:10030000B501EE58FE4F20818091B4019091B50166
:1003100001968F7390709093B5018093B4012093F0
:10032000C600FF91EF919F918F913F912F910F9078
:100330000FBE0F901F901895AF92BF92DF92EF9271
:10034000FF920F931F93CF93DF93EC017A018B0100
:10035000DD24403081EE580780E0680780E07807B0
:1003600011F0DD24D39491E0A92EB12CEC89FD8904
:10037000DD2069F0C50108A002C0880F991F0A940A
:10038000E2F7808360E079E08DE390E005C01082C1
:1003900060E874E88EE190E0A80197010E941F04D4
:1003A000215030404040504056954795379527950D
:1003B00080E12030380720F0DD2011F0DD24D6CF99
:1003C000E889F9893083EA89FB89208319A2EE89BB
:1003D000FF89408121E030E0C9010C8C02C0880F08
:1003E000991F0A94E2F7482B4083EE89FF894081E8
:1003F000C9010D8C02C0880F991F0A94E2F7482B9F
:100400004083EE89FF894081C9010E8C02C0880FAC
:10041000991F0A94E2F7482B4083EE89FF89808177
:100420000F8C02C0220F331F0A94E2F72095282375
:100430002083DF91CF911F910F91FF90EF90DF907C
:10044000BF90AF900895DC011C96ED91FC911D9733
:10045000E05CFF4F2191319180819181281B390B04
:100460002F733070C9010895DC011C96ED91FC9149
:100470001D97E05CFF4F20813181E054F040DF01A7
:10048000AE5BBF4F8D919C9111972817390719F4D6
:100490002FEF3FEF07C08D919C91E80FF91F8081EE
:1004A000282F30E0C9010895DC011C96ED91FC91E4
:1004B0001D97E05CFF4F20813181E054F040DF0167
:1004C000AE5BBF4F8D919C9111972817390719F496
:1004D0002FEF3FEF10C08D919C911197E80FF91FFE
:1004E00020818D919C91119701968F739070119638
:1004F0009C938E9330E0C9010895DC0191968C9114
:100500009197882339F05496ED91FC91559780810D
:1005100086FFF9CF91961C920895CF93DF93EC015B
:10052000EE85FF85E05CFF4F20813181E054F04093
:100530002F5F3F4F2F733070DF01AE5BBF4F8D9148
:100540009C91119728173907D1F3E05CFF4F808108
:100550009181E054F040E80FF91F6083EE85FF853C
:10056000E05CFF4F31832083EE89FF89208181E0A9
:1005700090E00F8C02C0880F991F0A94E2F7282B95
:10058000208381E089A3EC89FD8980818064808358
:1005900081E090E0DF91CF9108951092B90110921F
:1005A000B80188EE93E0A0E0B0E08093BA019093A8
:1005B000BB01A093BC01B093BD0186E191E0909393
:1005C000B7018093B6018EE291E09093C3018093CE
:1005D000C20182E791E09093C5018093C40185EC4C
:1005E00090E09093C7018093C60184EC90E09093D3
:1005F000C9018093C80180EC90E09093CB01809377
:10060000CA0181EC90E09093CD018093CC0182EC03
:1006100090E09093CF018093CE0186EC90E0909390
:10062000D1018093D00184E08093D20183E0809354
:10063000D30187E08093D40185E08093D50181E0E8
:100640008093D6010895CF92DF92EF92FF920F939D
:100650001F93CF93DF937C016B018A01C0E0D0E050
:100660000FC0D6016D916D01D701ED91FC91019004
:10067000F081E02DC7010995C80FD91F0150104026
:100680000115110571F7CE01DF91CF911F910F91E7
:10069000FF90EF90DF90CF900895EF92FF920F932D
:1006A0001F938C01DC01ED91FC910190F081E02D14
:1006B0006DE009957C01D801ED91FC910190F081EC
:1006C000E02DC8016AE009959C012E0D3F1DC9016E
:1006D0001F910F91FF90EF900895CF93DF93EC015E
:1006E0006115710519F420E030E00FC0DB010D90B9
:1006F0000020E9F71197A61BB70BE881F98102806A
:10070000F381E02DAD0109959C01C901DF91CF91E5
:100710000895EF92FF920F931F937C010E946D0347
:100720008C01C7010E944D03080F191FC8011F91BA
:100730000F91FF90EF9008951F920F920FB60F92B6
:1007400011242F933F938F939F93AF93BF938091E7
:10075000DC019091DD01A091DE01B091DF013091CB
:10076000E0010196A11DB11D232F2D5F2D3720F033
:100770002D570196A11DB11D2093E0018093DC014E
:100780009093DD01A093DE01B093DF018091D80149
:100790009091D901A091DA01B091DB010196A11DE0
:1007A000B11D8093D8019093D901A093DA01B09341
:1007B000DB01BF91AF919F918F913F912F910F904E
:1007C0000FBE0F901F901895789484B5826084BDF9
:1007D00084B5816084BD85B5826085BD85B5816045
:1007E00085BDEEE6F0E0808181608083E1E8F0E0A5
:1007F0001082808182608083808181608083E0E8D4
:10080000F0E0808181608083E1EBF0E080818460B2
:100810008083E0EBF0E0808181608083EAE7F0E0B4
:100820008081846080838081826080838081816018
:1008300080838081806880831092C1000895A1E246
:100840001A2EAA1BBB1BFD010DC0AA1FBB1FEE1F4A
:10085000FF1FA217B307E407F50720F0A21BB30B95
:10086000E40BF50B661F771F881F991F1A9469F711
:1008700060957095809590959B01AC01BD01CF016D
:100880000895EE0FFF1F0590F491E02D0994F89460
:02089000FFCF98
:10089200536F6D6520736869742069732073657482
:1008A2002100000000008D022303230254023402BF
:0208B2007D02C5
:00000001FF
